S01D0000456C656374726963207761746572206865617465722E7372656300
S11300000C942A000C949A000C94D3000C940C01C8
S11300100C9447000C9447000C9447000C94470040
S11300200C9447000C9447000C9447000C948804EB
S11300300C9447000C9447000C9447000C94470020
S11300400C9447000C9447000C9447000C94470010
S11300500C94470011241FBECFE5D8E0DEBFCDBF0E
S113006010E0A0E6B0E0E2E6FFE002C005900D92E9
S1130070AE37B107D9F720E0AEE7B0E001C01D927A
S1130080AD39B207E1F70E9449000C94AF070C9414
S113009000000E94F10420E048E853E160E070E0D1
S11300A087EC95E00E944F0480918500811103C084
S11300B00E94B705F9CF813089F40E94AA016093A8
S11300C07E0070937F0080938000909381000E9453
S11300D049060E94FB010E942E05E6CF823021F7DB
S11300E00E94C00180918300909184008C329140E1
S11300F098F46091600070E080E090E00E94FB0161
S11301008091830090918400019690938400809361
S113011083008C32914068F3109284001092830023
S11301208FEF91EE24E0815090402040E1F700C031
S11301300000BACF1F920F920FB60F9211242F9383
S11301403F934F935F936F937F938F939F93AF935B
S1130150BF93EF93FF9382E0809385000E94450450
S113016080918500823059F4809160008B3438F49A
S113017090918200913019F48B5F8093600081E04C
S113018080938200FF91EF91BF91AF919F918F91E6
S11301907F916F915F914F913F912F910F900FBE7F
S11301A00F901F9018951F920F920FB60F92112463
S11301B02F933F934F935F936F937F938F939F936B
S11301C0AF93BF93EF93FF9382E0809385000E94E7
S11301D0450480918500823059F480916000843216
S11301E038F090918200913019F48550809360002A
S11301F081E080938200FF91EF91BF91AF919F9135
S11302008F917F916F915F914F913F912F910F90BB
S11302100FBE0F901F9018951F920F920FB60F925A
S113022011248F9380918500811106C081E0809311
S113023085001092820005C08150823010F4109223
S113024085008F910F900FBE0F901F901895CF933C
S1130250DF93EC0160E08CE00E947A028FEC97E07F
S11302600197F1F700C000009E013695279532955D
S113027022952F7023273F702327822F887F836046
S11302800E94FE038C2F0E94FE038FEF0E94FE0348
S1130290C82F8FE19EE40197F1F700C0000061E0F0
S11302A08CE00E947A028C2FDF91CF91089560E058
S11302B08CE00E947A0286E00E94FE0361E08CE0FA
S11302C00E947A028FE99FE00197F1F700C00000D5
S11302D0089560E08CE00E947A0284E00E94FE03AC
S11302E061E08CE00E947A028FE99FE00197F1F7C8
S11302F000C0000008951F93CF93DF93EC01162FE5
S11303000E94570160E08CE00E947A029E013695BB
S11303102795329522952F7023273F702327822F0C
S1130320887F82600E94FE038C2F0E94FE03812F2F
S11303300E94FE0361E08CE00E947A028FE19EE459
S11303400197F1F700C000000E946901DF91CF918D
S11303501F91089587E090E00E946E02BC0180E046
S113036090E00E94780626EF38E24CE950E40E94BF
S1130370060720E030E040E251E40E94D7050895EA
S113038041E06FE784E390E00E94940341E063E07E
S113039081E390E00E94940340E063E082E390E014
S11303A00E94940341E06FE785E390E00E94940388
S11303B0089522B33FEF380F81E090E002C0880F28
S11303C0991F3A95E2F7282B22BB6E3219F42FE7D6
S11303D025BB06C0E62FF0E0E059FF4F208125BB86
S11303E0EFECF7E03197F1F700C0000092B380958D
S11303F0892382BB08958F929F92AF92BF92EF920E
S1130400FF920F931F93CF93DF93CDB7DEB72A9755
S11304100FB6F894DEBF0FBECDBF2AE0E6E6F0E0EB
S1130420DE01119601900D922A95E1F7643671056B
S113043081059105E8F5611571058105910509F1BD
S11304409E012F5F3F4F790100E010E00F2EFAE08C
S11304508F2E912CA12CB12CF02DA50194010E947A
S11304607307F701619371937F01622F732F842FB8
S1130470952F0F5F1F4F611571058105910569F770
S113048002C000E010E00150110969817A817723EC
S11304907CF00F5F7E01F3E0EF0EF11C802F0E94D1
S11304A0D901F701619171917F0101507723B4F76C
S11304B02A960FB6F894DEBF0FBECDBFDF91CF9161
S11304C01F910F91FF90EF90BF90AF909F908F90EE
S11304D008953E9A86B1876886B9089597B1907E4B
S11304E097B997B1892B87B9369A3699FECF84B1DB
S11304F095B108958830F8F4613069F44BB321E084
S113050030E0B90102C0660F771F8A95E2F7CB018C
S1130510842B8BBB0895611179C04BB321E030E08B
S1130520B90102C0660F771F8A95E2F7CB01809567
S113053084238BBB089598EF980F983000F56130B1
S113054069F448B321E030E0B90102C0660F771FB7
S11305509A95E2F7CB01842B88BB0895611156C0AC
S113056048B3885021E030E0B90102C0660F771F1C
S11305708A95E2F7CB018095842388BB089590EF98
S1130580980F983000F5613069F445B321E030E00C
S1130590B90102C0660F771F9A95E2F7CB01842B4D
S11305A085BB0895611132C045B3805121E030E02C
S11305B0B90102C0660F771F8A95E2F7CB018095D7
S11305C0842385BB089598EE980F9830F8F4613031
S11305D069F442B321E030E0B90102C0660F771F2D
S11305E09A95E2F7CB01842B82BB089561110EC06A
S11305F042B3885121E030E0B90102C0660F771F91
S11306008A95E2F7CB018095842382BB08958830D4
S1130610F8F4613069F44AB321E030E0B90102C072
S1130620660F771F8A95E2F7CB01842B8ABB089566
S1130630611179C04AB321E030E0B90102C0660F0C
S1130640771F8A95E2F7CB01809584238ABB0895AE
S113065098EF980F983000F5613069F447B321E0C2
S113066030E0B90102C0660F771F9A95E2F7CB011B
S1130670842B87BB0895611156C047B3885021E08D
S113068030E0B90102C0660F771F8A95E2F7CB010B
S11306908095842387BB089590EF980F983000F5D8
S11306A0613069F444B321E030E0B90102C0660F5F
S11306B0771F9A95E2F7CB01842B84BB08956111CF
S11306C032C044B3805121E030E0B90102C0660F6A
S11306D0771F8A95E2F7CB018095842384BB089524
S11306E098EE980F9830F8F4613069F441B321E042
S11306F030E0B90102C0660F771F9A95E2F7CB018B
S1130700842B81BB089561110EC041B3885121E04F
S113071030E0B90102C0660F771F8A95E2F7CB017A
S11307208095842381BB0895413029F4FC01208104
S1130730622B60830895411105C0FC0120816095FE
S1130740622360830895613021F42FEFFC0120833C
S11307500895611102C0FC011082089541E060E82F
S11307608FE590E00E94940308958630B9F08730B5
S1130770F9F0853041F584B7262F217030E000244C
S1130780369527950794369527950794322F202D73
S1130790282B24BF8BB780628BBF15C085B78C7F95
S11307A085BF85B7682B65BF8BB780648BBF0BC0D3
S11307B085B7837F85BF85B7660F660F682B65BFD6
S11307C08BB780688BBF0E94AE030895882319F00D
S11307D0813069F00895BC9ABF9ABD9ABE98689A10
S11307E06C9A6E9A61E08CE00E947A020895BC983B
S11307F0BF98BD98BE9A6C986E9A08958FB9779BEE
S1130800FECF8FEC97E00197F1F700C000008FB1A5
S1130810089583B78E7F83BF83B7826083BF83B716
S11308208B7F83BF089583B78E7F83BF83B78D7F0C
S113083083BF83B78B7F83BF0895882319F08330E8
S113084071F0089583B7877F83BF83B78F7B83BF9E
S11308500E94130489B7816089BF7894089583B78F
S1130860886083BF83B7806483BF83B7806283BF9C
S113087083B78F7E83BF83B7816083BF83B78D7F48
S113088083BF83B7846083BF089512BE10928F0024
S11308901092900010929100109292000895CF92BD
S11308A0DF92EF92FF926A017B0190939C00809308
S11308B09B0040938B0050938C0060938D00709349
S11308C08E000E94450488EEC89E802D11248095D8
S11308D082BF82B780938600A8EEB3E0A701960199
S11308E00E94A407BB27A92F982F872F0196A11D2B
S11308F0B11D8093870090938800A0938900B093E2
S11309008A000E940904FF90EF90DF90CF90089531
S11309101F920F920FB60F9211242F933F934F9370
S11309205F936F937F938F939F93AF93BF93EF9353
S1130930FF9380918F0090919000A0919100B091CD
S113094092000196A11DB11D80938F009093900099
S1130950A0939100B093920040918F005091900029
S1130960609191007091920080918700909188002D
S1130970A0918900B0918A00481759076A077B073C
S1130980F9F48091610090916200A0916300B091AC
S113099064000197A105B10561F48091860082BFCE
S11309A010928F0010929000109291001092920079
S11309B002C00E941304E0919B00F0919C000995F1
S11309C0FF91EF91BF91AF919F918F917F916F9123
S11309D05F914F913F912F910F900FBE0F901F90F9
S11309E0189562E086E00E94B50362E087E00E9409
S11309F0B50362E085E00E94B50380E00E94E6034F
S1130A0060E08AE10E94070360E08BE10E94070333
S1130A1060E08AE00E94070361E084E00E9407032B
S1130A2061E08BE00E94070361E085E00E94070318
S1130A3060E084E00E947A0260E08BE00E947A0227
S1130A4080E090E00E9427018093980080E00E945B
S1130A501D040E94C0010E946902089560917E00F5
S1130A6070917F0080918000909181000E944906DE
S1130A7070E08091600090E09C012450310962177D
S1130A80730774F41092650061E08BE00E947A02AF
S1130A9080919300909194008C32914060F01BC03F
S1130AA09C012C5F3F4F261737070CF05BC021E0F9
S1130AB02093650057C061E085E00E947A0280912E
S1130AC093009091940001969093940080939300E6
S1130AD08C32914080F360E085E00E947A021092AB
S1130AE094001092930060E084E00E947A02609186
S1130AF07E0070917F0080918000909181000E941F
S1130B00490670E08091600090E0049768177907C7
S1130B106CF581E0809365000895809165008130D3
S1130B2029F560E08BE00E947A0261E084E00E9493
S1130B307A0261E085E00E947A0260917E00709101
S1130B407F0080918000909181000E94490670E0AE
S1130B508091600090E00496861797073CF4109209
S1130B6065000895049686179707BCF2089560E01F
S1130B708BE390E00E94A30360E085E390E00E9491
S1130B80A30360E082E390E00E94A30308956091D0
S1130B90600080E090E00E947B01109282008091CE
S1130BA08500823019F481E08093850008950E94C5
S1130BB0EB050C94CC060E94C50658F00E94BE06B4
S1130BC040F029F45F3F29F00C94B50651110C94C0
S1130BD000070C94BB060E94DD0668F39923B1F369
S1130BE0552391F3951B550BBB27AA27621773074F
S1130BF0840738F09F5F5F4F220F331F441FAA1FE3
S1130C00A9F335D00E2E3AF0E0E832D0915050409E
S1130C10E695001CCAF72BD0FE2F29D0660F771F4C
S1130C20881FBB1F261737074807AB07B0E809F032
S1130C30BB0B802DBF01FF2793585F4F3AF09E3FB7
S1130C40510578F00C94B5060C9400075F3FE4F36B
S1130C50983ED4F3869577956795B795F7959F5FFA
S1130C60C9F7880F911D9695879597F90895E1E046
S1130C70660F771F881FBB1F621773078407BA07A5
S1130C8020F0621B730B840BBA0BEE1F88F7E09500
S1130C9008950E94E50688F09F5798F0B92F992788
S1130CA0B751B0F0E1F0660F771F881F991F1AF053
S1130CB0BA95C9F714C0B13091F00E94FF06B1E0B3
S1130CC008950C94FF06672F782F8827B85F39F0B2
S1130CD0B93FCCF3869577956795B395D9F73EF4EC
S1130CE090958095709561957F4F8F4F9F4F089594
S1130CF0E89409C097FB3EF49095809570956195B2
S1130D007F4F8F4F9F4F9923A9F0F92F96E9BB2767
S1130D109395F695879577956795B795F111F8CFE3
S1130D20FAF4BB0F11F460FF1BC06F5F7F4F8F4F4E
S1130D309F4F16C0882311F096E911C0772321F044
S1130D409EE8872F762F05C0662371F096E8862FDC
S1130D5070E060E02AF09A95660F771F881FDAF733
S1130D60880F9695879597F9089597F99F6780E876
S1130D7070E060E008959FEF80EC089500240A94E9
S1130D801616170618060906089500240A94121662
S1130D901306140605060895092E0394000C11F495
S1130DA0882352F0BB0F40F4BF2B11F460FF04C042
S1130DB06F5F7F4F8F4F9F4F089557FD9058440F9B
S1130DC0551F59F05F3F71F04795880F97FB991FA6
S1130DD061F09F3F79F08795089512161306140663
S1130DE0551FF2CF4695F1DF08C0161617061806F0
S1130DF0991FF1CF86957105610508940895E894CB
S1130E00BB2766277727CB0197F908950E94190716
S1130E100C94CC060E94BE0638F00E94C50620F051
S1130E20952311F00C94B5060C94BB0611240C9474
S1130E3000070E94DD0670F3959FC1F3950F50E003
S1130E40551F629FF001729FBB27F00DB11D639F78
S1130E50AA27F00DB11DAA1F649F6627B00DA11D1E
S1130E60661F829F2227B00DA11D621F739FB00DC4
S1130E70A11D621F839FA00D611D221F749F332734
S1130E80A00D611D231F849F600D211D822F762FCD
S1130E906A2F11249F5750409AF0F1F088234AF0AA
S1130EA0EE0FFF1FBB1F661F771F881F9150504016
S1130EB0A9F79E3F510580F00C94B5060C940007E9
S1130EC05F3FE4F3983ED4F3869577956795B7959D
S1130ED0F795E7959F5FC1F7FE2B880F911D9695B7
S1130EE0879597F90895A1E21A2EAA1BBB1BFD0151
S1130EF00DC0AA1FBB1FEE1FFF1FA217B307E407F5
S1130F00F50720F0A21BB30BE40BF50B661F771F4C
S1130F10881F991F1A9469F760957095809590952C
S1130F209B01AC01BD01CF010895A29FB001B39F05
S1130F30C001A39F700D811D1124911DB29F700DDE
S1130F40811D1124911D08950E949507A59F900D60
S1130F50B49F900DA49F800D911D11240895F894C1
S1050F60FFCFBD
S1130F623C0100000002FFFFFFFFFFFFFFFFFFFF46
S1110F72C0F9A4B0999282F880907F86AFA354
S9030000FC
